:1001910057656C636F6D6521004C434431363032D5
:0901A10020646973706C6179003F
:1001D5007580FFC2B5D2B6D2B4AF80C2B4EF20E706
:0101E500F623
:0101E60022F6
:1001E700AE071201D5C2B5C2B68E80D2B4C2B42250
:1001F700AE071201D5D2B5C2B68E80D2B4C2B42230
:1001AA00AE07AC03ED6003430640430680AF061278
:0701BA0001E7AF040201F7A9
:100160008B218A228923ED600343074043078012D5
:1001700001E7AB21AA22A9231200F960130523E5A8
:10018000237002052214F91200F9FF1201F780E230
:01019000224C
:1001C1007F381201E77F0C1201E77F061201E77FFA
:0401D100010201E73F
:1001120078087C007D007BFF7A0179917E007F095F
:100122001200D378117C007D007BFF7A01799A7EE0
:10013200007F101200D3C2A6C2A71201C17B007AAF
:10014200007908E4FDFF1201607B007A0079110D4D
:0E015200E4FF1201607BFF7F0F1201AA80FE06
:03000000020207F2
:0C020700787FE4F6D8FD75812302011217
:10000300E709F608DFFA8046E709F208DFFA803EDF
:1000130088828C83E709F0A3DFFA8032E309F608CC
:10002300DFFA8078E309F208DFFA807088828C8334
:10003300E309F0A3DFFA806489828A83E0A3F608E8
:10004300DFFA805889828A83E0A3F208DFFA804CC2
:1000530080D280FA80C680D4806980F28033801099
:1000630080A680EA809A80A880DA80E280CA803302
:1000730089828A83ECFAE493A3C8C582C8CCC5837A
:10008300CCF0A3C8C582C8CCC583CCDFE9DEE7804A
:100093000D89828A83E493A3F608DFF9ECFAA9F0C9
:1000A300EDFB2289828A83ECFAE0A3C8C582C8CC1F
:1000B300C583CCF0A3C8C582C8CCC583CCDFEADE38
:1000C300E880DB89828A83E493A3F208DFF980CC9A
:1000D30088F0EF60010E4E60C388F0ED2402B40493
:1000E3000050B9F582EB2402B4040050AF2323453A
:0600F3008223900053730C
:1000F900BB010689828A83E0225002E722BBFE0205
:09010900E32289828A83E4932237
:00000001FF
