:1000B6003F065B4F666D7D077F6F777C395E797192
:0900C6007638373E735C400000FF
:09008F0093F580C2A67F057E00F6
:10009800D3EF9400EE940040147D727C00ED1D7047
:0D00A800011CED4C70F7EF1F70E61E80E3A9
:0100B5002228
:10000300EF75F06484FEEF75F06484E5F075F00A33
:1000130084FBEF75F00A84AAF07580FFD2A7758080
:10002300FEC2A7D2A6AF06EF9000B612008F75806E
:10003300FFD2A77580FDC2A7D2A6AF03EF12008F30
:100043007580FFD2A77580FBC2A7D2A6AF02EF933C
:0B005300F580C2A67F057E0002009829
:10005E00D28CD28E758961758C4B758AFC758D1418
:10006E00E4F58B308D0A758C4B758AFCC28D0508B4
:10007E00E508B40205E4F508B290AF8B12000380D8
:01008E00E28F
:030000000200CF2C
:0C00CF00787FE4F6D8FD75810802005E21
:00000001FF
