:0D016B003F065B4F666D7D077F6FFEFDFB5D
:06000300040800000000EB
:10013D00D3EF9400EE940040147D727C00ED1D70A1
:0D014D00011CED4C70F7EF1F70E61E80E303
:01015A002282
:10015B00758901758CED758AFFD2A9D28CD2AF222D
:10010B0012015B20B0147F057E0012013D20B00769
:10011B00E50BF46002050B30B0FD20B1E67F057EE8
:10012B000012013D20B106E50B6002150B20B1D387
:02013B0080FB47
:03000B0002009A56
:10009A00C0E0C0F0C083C082C0D075D000C0007577
:1000AA008CED758AFFE50CC394035045E50B75F09A
:1000BA006484F508E50B75F06484E5F075F00A844C
:1000CA00F509E50B75F00A8485F00A7580FFD2A759
:1000DA00E50C90017593F580C2A77580FFD2A674CE
:1000EA0008250CF8E690016B93F580C2A6050C80F2
:1000FA0003750C00D000D0D0D082D083D0F0D0E0ED
:01010A0032C2
:0300000002000EED
:0C000E00787FE4F6D8FD75810C020055E7
:10001A0002010BE493A3F8E493A34003F68001F2F0
:10002A0008DFF48029E493A3F85407240CC8C333E7
:10003A00C4540F4420C8834004F456800146F6DFB6
:10004A00E4800B0102040810204080900003E47E43
:10005A00019360BCA3FF543F30E509541FFEE493AB
:10006A00A360010ECF54C025E060A840B8E493A372
:10007A00FAE493A3F8E493A3C8C582C8CAC583CA9D
:10008A00F0A3C8C582C8CAC583CADFE9DEE780BE55
:0100090000F6
:00000001FF
