:100153003F065B4F666D7D077F6F777C395E7971F4
:090163007638373E735C40000061
:0301840001081659
:10013500D3EF9400EE940040147D727C00ED1D70A9
:0D014500011CED4C70F7EF1F70E61E80E30B
:01015200228A
:1000030075B0F0E5B064F0605F7F057E00120135E6
:10001300E5B064F06052AFB0EF2490601B24C06081
:100023001224E0600924F07012E4F508800D7508CD
:10003300018008750802800375080375B00FAFB01F
:10004300EF24F9601824FC601024FE600814701378
:10005300850808800E7404800674088002740C25D9
:1000630008F508E5B0B40FFB75B0FFE5B0F46035F3
:100073007F057E00120135E5B0F46029AFB0EF24AF
:1000830009601A24FC601124FE60081470127508BC
:1000930010800D7508118008750812800375081308
:0600A300E5B0B4FFFB22F2
:10016C00D2A7E4F580C2A7D2A6F580120003E50859
:08017C0090015393F58080F31C
:030000000200A952
:0C00A900787FE4F6D8FD7581080200F0B5
:1000B50002016CE493A3F8E493A34003F68001F2F4
:1000C50008DFF48029E493A3F85407240CC8C3334C
:1000D500C4540F4420C8834004F456800146F6DF1B
:1000E500E4800B0102040810204080900184E47E26
:1000F500019360BCA3FF543F30E509541FFEE49310
:10010500A360010ECF54C025E060A840B8E493A3D6
:10011500FAE493A3F8E493A3C8C582C8CAC583CA01
:10012500F0A3C8C582C8CAC583CADFE9DEE780BEB9
:010187000077
:00000001FF
