:1000870000482A8EFB0E2A480C1E3E7C7C3E1E0C26
:10006800C2B500C2B600E4FEEF30E004D2B48002AC
:0E007800C2B4D2B5C2B5EFC313FF0EBE08EA84
:010086002257
:10000300E4FBFA7C7FE4FDAF04120068ED90008707
:1000130093FF120068D2B600C2B600ECC31344804B
:10002300FC0DBD08E20BBB00010ABA03D6BBE8D343
:10003300E4FAFBC3EB94E8EA940350C47C7FE4FD49
:10004300AF04120068ED90008F93FF120068D2B6E0
:1000530000C2B600ECC3134480FC0DBD08E20BBB29
:0500630000010A80CE3F
:0300000002009764
:0C009700787FE4F6D8FD758107020003B5
:00000001FF
