:0C029C00446174653A0054696D653A00D5
:0902A8000708323A170F02011099
:1001F5007D737C00ED1D70011C144C70F7EF1F70B2
:06020500011E144E70EA18
:01020B0022D0
:0601C300C292C290D2922C
:1001C900E4FEC290EF139291D290EFC313FF0EBEDB
:0201D90008F02C
:0101DB002201
:10022300E4FEC290EFC313FF309103430780D290E3
:040233000EBE08EE05
:0102370022A4
:0802B2001201C3AF050201C9EE
:0602BA001201C312022331
:0102C000221B
:0702C100E4FD7F8E0202B292
:0C0290007D807F8E1202B2C292C29022CA
:02012A00AC0720
:10012C001202C1E4FB74082BF8E6FF75F00A84FA9E
:10013C00EF75F00A84A6F0EAC454F0FF74082BF8AB
:10014C00EF26F6AF0474082BF8E6FD1202B20C0C85
:07015C000BBB07D10202906A
:0201A800AC07A2
:1001AA001202C1E4FDAF041202BA74082DF8A607C0
:0901BA000C0C0DBD07EF020290D0
:100003001202387F8012012A7BFF7A02799CE4FD79
:10001300FF1201637BFF7A0279A27D01E4FF1201E3
:10002300637F811201A8AB0EE4FD7F0512018B7B78
:100033002DE4FD7F0712020CAB0CE4FD7F081201D7
:100043008B7B2DE4FD7F0A12020CAB0BE4FD7F0BCF
:1000530012018B7B2DE4FD7F0D12020CAB0DE4FD31
:100063007F0E12018BAB0A7D017F0612018B7B3A57
:100073007D017F0812020CAB097D017F0912018B00
:100083007B3A7D017F0B12020CAB087D017F0C12C2
:0B009300018B7FE87E031201F58086E0
:10024C007580FFC2B5D2B6D2B4AF80C2B4EF20E78E
:01025C00F6AB
:01025D00227E
:10027000AE0712024CC2B5C2B68E80D2B4C2B4224E
:10028000AE0712024CD2B5C2B68E80D2B4C2B4222E
:10025E00ED7004AC078004EF2440FCEC4480FF02F8
:02026E0002701C
:10020C00AE07AC03ED6003430640430680AF061215
:07021C000270AF0402028032
:10018B008F0FAA03A905050FEAC4540F2430FB12E5
:0D019B00020CEA540F2430FBAF0F02020CDF
:100163008B0F8A10891112025EAB0FAA10A911120C
:1001730001DC60130511E5117002051014F9120179
:08018300DCFF12028080E22281
:100238007F381202707F0C1202707F061202707FE4
:04024800010202703D
:0300000002009E5D
:0C009E00787FE4F6D8FD7581110200E5C2
:1001DC00BB010689828A83E0225002E722BBFE0221
:0901EC00E32289828A83E4932254
:1000AA00020003E493A3F8E493A34003F68001F269
:1000BA0008DFF48029E493A3F85407240CC8C33357
:1000CA00C4540F4420C8834004F456800146F6DF26
:1000DA00E4800B01020408102040809002A8E47E0C
:1000EA00019360BCA3FF543F30E509541FFEE4931B
:1000FA00A360010ECF54C025E060A840B8E493A3E2
:10010A00FAE493A3F8E493A3C8C582C8CAC583CA0C
:10011A00F0A3C8C582C8CAC583CADFE9DEE780BEC4
:0102B100004C
:00000001FF
