:10006E003F065B4F666D7D077F6F777C395E7971DA
:09007E007638373E735C40000047
:10003F00D2A7C2A7A3E493F580D2A6C2A67F027E61
:01004F0000B0
:10005000D3EF9400EE940040147D727C00ED1D708F
:0D006000011CED4C70F7EF1F70E61E80E3F1
:01006D002270
:100003007580FED2A7C2A790006F1200447580FDD1
:1000130012003F7580FB12003F7580F712003F7599
:1000230080EF12003F7580DF12003FD2A77580BFBB
:0C00330012004175807F12003F020003A4
:0300000002008774
:0C008700787FE4F6D8FD758107020003C5
:00000001FF
